:0400000058EF00F0C5
:100008002982FACF18F0FBCF19F0E9CF1AF0EACF1E
:100018001BF0E1CF1CF0E2CF1DF0D9CF1EF0DACFF4
:100028001FF0F3CF20F0F4CF21F0F6CF22F0F7CF76
:1000380023F0F8CF24F0F5CF25F00E01C5A106D0A6
:100048000E01CDA103D05BEC01F010D00E01C5A9C3
:1000580006D00E01CDA903D0F2EC00F007D00E01B6
:10006800C5AB04D00E01CDBB21EC01F025C0F5FFD6
:1000780024C0F8FF23C0F7FF22C0F6FF21C0F4FF19
:1000880020C0F3FF1FC0DAFF1EC0D9FF1DC0E2FF6A
:100098001CC0E1FF1BC0EAFF1AC0E9FF19C0FBFF43
:1000A80018C0FAFF2992110037EF01F0000E836E95
:1000B800000E846E000E856E88688968BF0E8A6E91
:1000C800670E0F01216F0F0119690F011169000EE9
:1000D8000F012D6F000E0F01186F000E0F01106F2A
:1000E800000E0F01206F000E0F010F6F000E0F01A1
:1000F800176F000E0F011F6F000EF2BE010E266E65
:10010800F29E550E0E01A06FAA0E0E01A06F0E01F1
:10011800A0910F0E0E01FA6F100E0E01FB6F0E016B
:10012800B581B583B585B597B589090E0E01FD6F03
:100138000E01B781B783B795B797B7890E01B89104
:10014800B893B885B897B889550E0E01A06FAA0E56
:100158000E01A06F0E01A08126A002D0F28E12001F
:10016800F29E1200166E2750D8B4FDD70E01C5B9FD
:1001780003D016C09AFF13D00E01C5991550010D72
:10018800090EF324D96E000EF420DA6E16C0DFFFD4
:10019800152A070E156402D0000E156E27060E01EB
:1001A800C58912000E01C59B0E01C599080E9F6EE8
:1001B800900E9D6E240E9E6E9B68010E9C6E000E26
:1001C800156E000E146E080E276E000E136E000ECC
:1001D800126E000E116E0E01C58B1200080E2760FC
:1001E80012D01450010D090EF324D96E000EF4201C
:1001F800DA6EDF509A6E142A070E146402D0000ECD
:10020800146E272A12000E01C59912000F012197BA
:100218000F012199800E956E360E966E000E976E20
:10022800000E986EFE0E946E080E936EF28EF28C8F
:100238000E01CD910E01C58112009DA202D09D989C
:100248009D881350010D010EF324D96E000EF42081
:10025800DA6E99CFDFFF132A070E136402D0000E5F
:10026800136E112A1200FA0EF66E020EF76E000EC9
:10027800F86E0900F5CF28F000EE01F0150EEE6AD1
:10028800E806FDE12990299200017AEF01F0600E5D
:100298000E01D86F000E0E01DA6F000E0E01DC6F32
:1002A800080E0E01DE6F000E0E01DD6F1200000E4B
:1002B800176E0E01CD9192CF17F095AA1200175024
:1002C800B6EC00F0120072EC01F05AEC00F04BECC6
:1002D80001F00AEC01F0D6EC00F01200F28A0E01EF
:1002E800BD810E01BD890E01BD8B120067EC01F0C6
:0302F800FFD755D8
:020000040020DA
:10000000FF0FFF0FFF0FFF0FFF0FFF0FFF0FFF0F80
:020000040030CA
:0C0000008CFFFFFF9FFFFFDFFFFFFFFFF3
:00000001FF
